:400000000080002011000000D5010000D501000008B5044B1A6803F53F5302331A6000F0F3F800BFFA46004010B5054C237833B9044B13B10448AFF300800123237010BDE0
:400040009081FF1F0000000000260000084B10B51BB108480849AFF300800848036803B910BD074B002BFBD0BDE81040184700BF00000000002600009481FF1F0881FF1FE5
:400080000000000008B501F095F908BD2DE9F84380460D460024A1461AE0002000F05CFFB0B100F071FF80B2082F09D0B04294BF00260126BE4009EB06035FFA83F905E01B
:4000C00008F8049001344FF000094F4601370646AC42E2DBBDE8F883F8B507460E461546002406E007EB44000349321901F00AFA0134AC42F6DBF8BD042600002DE9F0417C
:4001000000AF80460D464B00073323F00703ADEB030D6E46002407E006EB4400064918F8042001F0CBF90134AC42F5DB304601F065F9BD46BDE8F0810C26000010B586B083
:4001400062B6204801F0ECF801F026F901F038F900F03AFB012000F0EBFA00F0E1FE00F0F3FE00F0ABFB0024ECB90020012100F039FB154800F0CEFA0120014600F032FBCE
:4001800002A81021FFF782FF02A81021FFF7B6FF0E4801A90122FFF79FFF01A80121FFF7ADFF01240AE04CB1012000F0C1FA0020012100F017FB064800F0ACFA642001F0CE
:4001C00049F8D1E785000000142600002426000028260000FEE700BF08B5094B1A681044084BC31A802B02DC054B186005E001F025F90C2303604FF0FF32104608BD00BFD3
:400200000C81FF1FE081FF1F08B5104E104D16E029686B68AC68002204E051F8040B43F8040B0432A242F8D1E868002203E0002143F8041B04328242F9D11035013E002EDD
:40024000E6D101F001F9FFF779FFFEE7010000006828000008B5124A124B1A60124A136843F40073136000230AE0032B03D80F4A52F8231000E00E490E4A42F823100133F8
:400280002F2BF2D90C4B1A780C4B1A70094A0C4B1A6000F0F3F800220A4B1A6008BD00BF0004FA050CED00E014ED00E000000000D50100000080FF1FBC7600400481FF1F95
:4002C00008ED00E00081FF1FFEE700BFF0B40022174611E050F82760F3B226F0FF0608E001EB420511F812406D78A5550132013BDBB2002BF4D101371A2FEBD9F0BC70475A
:400300000A4B1B78DBB203F00701094A11701B09013213708022074B1A701023064A13706C3213704422054B1A707047CF0100496E580040935A0040945A0040765800407B
:4003400008B50A46002101F0B0F808BD08B501F0A1F808BD38B500242F4B1C80502202331A704FF49C7202331A80182202331A702A482B490422FFF7E9FF0222294B1A7068
:4003800008224FF040231A70032103F500731970254B1B78DBB225490B70254B1A8041F25122023B1A8019250CE0224B1B7803F0010343EA440404F003044FF4F07000F0AB
:4003C00037FF013D0DB1032CEFD115B90320FFF77BFF194B4FF480721A8007221A70002216490A704820023108701A700222033B1A7004220A331A70114A137843F0030305
:400400001370013A137843F001031370013A137843F08003137038BD8040004000410040280400480043004008010049A1460040224200402542004004400040064000407F
:40044000A2430040012807D8044B53F820201844017A13780B431370704700BF34260000012808D8044B53F820201844017A137823EA0103137070473426000070B572B63B
:40048000354A137843F00403137000240AE0334963001A1952000A44D068118AFFF750FF0134E4B2082CF2D900240BE02B49A3001A1952000A44506C916C8022FFF746FF44
:4004C0000134E4B2002CF1D04FF090402449FFF7FDFE0A25234B1D70234A137843F0020313701032137843F0020313701F4C237843F040032370A2F58632513A137843F0CB
:40050000100313701A481B490822FFF71FFF1A481A492A46FFF71AFF19481A490822FFF715FF194819490822FFF710FF184A137843F008031370174E01253570FFF70AFF16
:4005400081233370144B1D70FFF7DAFE134821460E22FFF7FBFE70BDE8460040342600006C0000488358004003500140A04300400251004004040048C05100400C04004892
:4005800022510040180400486251004020040048224300400048004004000840B043004010B50B4C237803F09F032370237803F0F00323702378184340F01000207001203F
:4005C00000F05EFE237803F0EF03237010BD00BF2051004038B505460E4C237843F020032370237803F0BF032370002000F048FE237803F0F003237023781D4345F01005B7
:400600002570012000F03CFE237803F0EF03237038BD00BF2051004070B5354B1A7802F08002D2B21A7033490A7802F0F00242F00F020A7001310A7802F0F0020A700131C6
:400640000A7802F0F0020A701A7802F0DF021A701A7842F040021A704FF4CA76002000F00FFE234D2B7843F010032B70012000F007FE214B1C78E4B22B7803F0EF032B70B8
:40068000002000F0FDFD04F00804E4B22B7843F010032B70012000F0F3FD2B7803F0EF032B7014B90A2000F0EBFD013E0CB1002ED4D10F4A137803F0BF031370137803F0BA
:4006C0008003DBB213700232137803F0F00313700132137803F0F00343F00F0313700132137803F0F00343F00F03137070BD00BF20510040225100402151004010B5044656
:40070000FFF78AFF2009FFF765FF04F00F00FFF761FF10BD38B505460078012404E0FFF7EDFF285D0134E4B20028F8D138BD00BF10B50446FFF770FF2009FFF731FF04F04A
:400740000F00FFF72DFF10BD08B5282000F082FD0320FFF725FF052000F07CFD0320FFF71FFF0F2000F076FD0320FFF719FF012000F070FD0220FFF713FF052000F06AFD1E
:400780000620FFF7D5FF0E20FFF7D2FF2C20FFF7CFFF0820FFF7CCFF0120FFF7C9FF0C20FFF7C6FF0320FFF7C3FF052000F052FD08BD00BF08B50C20FFF7BAFF0122014BCB
:4007C0001A7008BDAC81FF1F08B5054B5B7823B9FFF7BAFF0122024B5A70FFF7EBFF08BDAC81FF1F08B5032819D8DFE800F002070D1381F08000FFF79BFF08BDA1F14000F9
:40080000C0B2FFF795FF08BDA1F16C00C0B2FFF78FFF08BDA1F12C00C0B2FFF789FF08BD054A137843F0040313701032137843F004031370704700BFA8430040054B1A7827
:4008400002F0FD021A701A7800F0020010431870704700BF28580040014B1870704700BF825B0040094B1B7803F00C035B08084A127812F0040F00D0013303F1924393F86C
:400880002831DBB2034A1370704700BF28580040295800400A46004008B51422064B1A700133002018701A78D2B21A70FFF7C6FFFFF7D8FF08BD00BF2858004008B5074BD6
:4008C0001B7823B9FFF7E8FF0122044B1A70FFF7A7FF7820FFF7C0FF08BD00BFAE81FF1F38B59DF81040651EEDB2032D4AD80138092826D8DFE800F00525250525250D15D1
:40090000251D0F2B02D9214800781BE02048007818E00F2B02D91F48007813E01E48007810E00F2B02D91D4800780BE01C48007808E00F2B02D91B48007803E01A480078A9
:4009400000E0002040B201EB401101FB02F2D20B91B20D2B0BD8C3F10E0192B20A4191B2124A02EB8402013302F8023C05E00F4B03EB84030F2203F8022C013C0B4B23F891
:40098000241038BD002000F063FC38BD180100491C010049190100491D0100491A0100491E0100491B0100491F010049B081FF1FF8B5074600F044FC06460D4D2B7843F089
:4009C00003032B700B4C237843F0030323700A4B1F70032000F054FC2B7803F0FC032B70237803F0FC032370304600F02DFCF8BDF8460040F946004092580040F8B504469F
:400A00000022C24B1A7401285FD13422C04B1A70042202331A70072201331A70002601331E7001331E703F2201331A701B2202331A70712201331A7001331E7001250A33AE
:400A40001D70502203F527631A70272201331A702C2201331A7001331E70552203331A705A2201331A70052701331F7002331D70112201331A70192201331A70972201339D
:400A80001A704C20FFF794FF5822A24B1A7001331E7005331F7001331D7001331E700A2201331A70284600F0AFFA4FF4FA429A4B1A601620294600F0CBFA5C20294600F0B6
:400AC0004BFB1D20954900F0E5FB022C5DD138228F4B1A70042202331A70062201331A70002501331D7001331D703F2201331A7002331D7001331D7001331D7001260A3372
:400B00001E70502203F527631A70272201331A702C2201331A7001331D70552203331A705A2201331A70052701331F7002331E70112201331A70192201331A7097220133DB
:400B40001A704420FFF734FF5822724B1A7001331D7005331F70022201331A7001331D7001331D70284600F04FFA4FF47A426A4B1A600820314600F06BFA2520314600F03C
:400B8000EBFA1D20664900F085FB032C5DD138225F4B1A70042202331A70062201331A70002501331D7001331D703F2201331A7002331D7001331D7001331D7001260A33D0
:400BC0001E70502203F527631A70272201331A702C2201331A7001331D70552203331A705A2201331A70052701331F7002331E70112201331A70192201331A70972201331B
:400C00001A704420FFF7D4FE5822424B1A7001331D7005331F70022201331A7001331D7001331D70284600F0EFF94FF47A423A4B1A600820314600F00BFA2520314600F0FD
:400C40008BFA1D20374900F025FB042C5DD138222F4B1A70042202331A70062201331A70002401331C7001331C703F2201331A7002331C7001331C7001331C7001250A3334
:400C80001D70502203F527631A70272201331A702C2201331A7001331C70552203331A705A2201331A70052601331E7002331D70112201331A70192201331A70972201335F
:400CC0001A704420FFF774FE5822124B1A7001331C7005331E70022201331A7001331C7001331C70204600F08FF94FF47A420A4B1A600820294600F0ABF92520294600F0DA
:400D00002BFA1D20084900F0C5FAF8BDB081FF1F004E004094580040D081FF1FD90F0000DD0F0000E10F0000E50F00002DE9F04182B0394D01272F70384E002474741020E4
:400D400000F074F9102000F0F5F91D20072100F0B5FA4FF00408324B83F8008001331C7007331C702F4A137843F0180313702E4B1C7003F2F5231C7001331C700A22A3F2C7
:400D800009331A7001331C7002331C705B2205331A705E2201331A7004331C701422A3F68C231A700097384649F2DA014FF400421023FFF795FD02230093204649F2DA0105
:400DC0004FF400421023FFF78BFD03230093204649F2DA014FF400421023FFF781FDCDF80080204649F2DA014FF400421023FFF777FD2B7806EB830313F8022C0B4B1A7046
:400E00002B78013B36F82320094B1A802878FFF7F5FD02B0BDE8F0811081FF1FB081FF1F96580040075B0040935800400E4E00400C4E004010B500F003FA0446314B1A78EB
:400E4000D2B2314B197841F001011970197841F0100119701033197841F001011970197841F01001197029490B7843F002030B7001310B7843F002030B7001F58C511831B1
:400E80000B7843F003030B70012A04D1204A137843F008031370032000F0F2F91B4A137803F0FD0313700132137803F0FD03137002F58B521E32137843F0060313707A22A3
:400EC000144B1A70144A137843F0010313701032137843F0010313700F3A137843F0010313701032137843F0010313704FF000530A4A1360A2F5C0721360204600F0A4F942
:400F000010BD00BF1081FF1FAA430040F84600409258004082580040A143004080E200E008B5084B9B7C4BB9064BDB7C13F0FF0F01D1FFF7FBFE0122024B9A74FFF77AFF8F
:400F400008BD00BFB081FF1F024A137843F0010313707047004E0040094B1B7C13F0FF0F03D0074B5B7CDBB203E0064B1B7803F00103012B01D00028EED01846704700BFCE
:400F8000B081FF1F014E00400E4B1B7803F00303012B03D80C4B188880B209E00A4A12780A49087842EA0020032B01D1084B1B78084B1B7C13F0FF0F02D00022054B5A7465
:400FC00000B27047144E0040104E0040114E0040124E0040B081FF1F704700BF704700BF704700BF704700BF10B5002404E02046FFF736FA0134E4B2012CF8D9FF22014B53
:401000001A7010BD1181FF1F10B50446FFF7ECFF2046FFF717FA014B1C7010BD1181FF1F014B188880B2704780400040034B1A7800F0F80010431870704700BF8240004007
:40104000024B187800F00700704700BF8240004070B505460E46FFF7F3FF0446FFF7E0FF854256D02B4B1B7803F0010294B900B185B938B9284B1D80284A137803F0BF037E
:40108000137070BD254A137843F040031370224B1D8070BD22B3002321490B7001240F310C7004310B700C390B7803F07F030B701A4B1B7813F0080F00D08DB9194B18800C
:4010C0000721013B1970164B1B7813F0010FFAD110490B7803F0FE030B700021104B19700C4B1B7813F0010F0DD00E4B1D800EB1032200E001220A4B1A70094B1B7813F061
:40110000010FFAD170BD044B1D8002490B7813430B7070BDA243004080400040824000400140004002400040014B188880B2704700410040034B1A7800F0F80010431870CC
:40114000704700BF02410040024B187800F00700704700BF0241004070B505460E46FFF7F3FF0446FFF7E0FF854256D02B4B1B7803F0010294B900B185B938B9284B1D80B5
:40118000284A137803F0BF03137070BD254A137843F040031370224B1D8070BD22B3002321490B70012413310C7004390B7008390B7803F07F030B701A4B1B7813F0080F63
:4011C00000D08DB9194B18800721013B1970164B1B7813F0010FFAD110490B7803F0FE030B700021104B19700C4B1B7813F0010F0DD00E4B1D800EB1032200E001220A4BC2
:401200001A70094B1B7813F0010FFAD170BD044B1D8002490B7813430B7070BDA1430040004100400241004001400040024000400230800803D000BF01380046FCD1704700
:40124000EFF3108072B6704780F31088704700BF01BE704710B5044605E0084B1868FFF7E7FFA4F50044B4F5004FF6D8034B586800FB04F0FFF7DCFF10BD00BF1481FF1FD3
:4012800008B5034B1B7A03FB00F0FFF7D1FF08BD1481FF1F70B504460E46074B1D681F2802D90020FFF7D4FF04F01F04103455F8240045F8246070BD08ED00E038B50446F7
:4012C0000D46072902D90020FFF7C2FF1F2C02D90020FFF7BDFF04F01F0000F1604000F564406D01EDB2057038BD00BF014B1B681864704708ED00E04001C0B2014B1870F0
:40130000704700BF00E400E00122014B1A60704700E100E00122014B1A60704780E100E010B50446FFF7F6FF2046FFF7DFFF0720FFF7E2FFFFF7E8FF10BD00BF7222074BB0
:401340001A702022033B1A700622633B1A70472210331A7000224F331A7070478F64004010B5FFF76DFF04460A4A137843F020031370033A137843F010031370043A1378B8
:4013800043F01003137000F04BF82046FFF75CFF10BD00BF9F64004008B5054B1B7823B9FFF7CCFF0122024B1A70FFF7D9FF08BDC481FF1F014B1878704700BF4F64004039
:4013C00008B5FFF73DFF064B1A7842F001021A701A7802F0FE021A70FFF736FF08BD00BF9F640040034B1B7813F0040FFAD1024B18707047686400404864004038B5074BD7
:401400001B782BB938BDFFF7EDFF0134A4B201E005460024285D0028F5D138BDC481FF1F054A137843F0020313701032137843F002031370704700BFA2430040014B186834
:40144000704700BF8481FF1F0E4B70B51E460E4C0025E41AA410A54204D056F8253098470135F8E701F0EEF9084B094C1E46E41AA4100025A54204D056F825309847013540
:40148000F8E770BD5028000050280000502800005828000010B5431E0A44914204D011F8014B03F8014FF8E710BD03460244934202D003F8011BFAE7704700000EB400B575
:4014C0004FF402719CB0ADF814106FF00041049107914FF6FF711DABADF81610084953F8042B02900690086802A9019300F098F8029B00221A701CB05DF804EB03B0704727
:401500008481FF1F0EB430B59CB01FAC4FF4017254F8045BADF814200290069000F01EF80B4B03900B9300230F9314934FF6FF73ADF81630074B079002A918682A462346E0
:40154000019400F0B9F91CB0BDE8304003B07047591500008481FF1F00207047034613F8012B002AFBD1181A013870472DE9F0478E688246B3420C469046994640D38A89BC
:4015800012F4906F3AD02568096902236F1A656905EB450595FBF3F57B1C4B449D4238BF1D4653050FD5294600F094FF064698B121693A46FFF76EFFA38923F4906343F0F7
:4015C0008003A38113E02A4600F0DAFF064670B95046216900F03AFF0C23CAF80030A3894FF0FF3043F04003A381BDE8F08726613E4426604E466561ED1BA560B14500D22B
:401600004E4632462068414600F005FFA36800209B1BA36023681E442660BDE8F08700002DE9F0439DB003938B8906461C060D4690460CD50B6953B9402100F04BFF2860CD
:40164000286110B90C233360CCE040236B610023099320238DF8293030238DF82A3043461C4613F8012B1AB9B4EB08090FD002E0252AF5D1F8E73046294642464B46FFF71B
:4016800075FF013000F0A980099B4B4409932378002B00F0A28000234FF0FF3204930793059206938DF853301A9304F101084446DFF8489121784846052200F09EFE08F111
:4016C0000108049B30B1C9EB00000122824013430493ECE7D80644BF20228DF85320190744BF2B228DF8532022782A2A02D0079923460EE0039A0134111D12680391002A96
:40170000BBBF524243F0020307920792B8BF04930AE01C4622780133303A092A03D80A2000FB0121F5E7079123782E2B1AD163782A2B0AD1039B02341A1D1B680392002B9E
:40174000B8BF4FF0FF3305930CE0611C00220C4623780131303B092B03D80A2000FB0232F5E70592DFF8988021784046032200F044FE38B1049AC8EB0000402383401343DE
:401780000493013421781A48062204F101088DF8281000F032FE88B1164B33B9039B073323F007030833039313E003AB0093304604A92A46104BAFF3008007E003AB0093A7
:4017C000304604A92A460C4B00F03AFA421C074603D0099B3B44099341E7AB895B0601D4099801E04FF0FF301DB0BDE8F08300BF90260000000000006D1500008626000094
:401800008C26000038B54B1C144602D14FF0FF3038BD9389CDB223F020039381536B526883B1A36B9A4207DA23685A1E226003F8015C636801331FE0214600F0A5FD0028BA
:40184000F2D0E3E72169236851B18B4208D913F8010CA84204D1013B01322360626038BDE36304F1440363630323A3632346226403F8465F236001236360284638BD10B502
:401880000C46496B69B104F14403994201D000F0DDFD236C00206063636013B1E36B236010BD23694FF0FF30236000236360A38943F02003A38110BD2DE9F04707460C46FD
:4018C0009046ADF5247D01930023469347939C4B0DF10C0AA2939B4BCDF820A1A39398F80050002D00F0248197490B6889462B445B7803F0080303F0FF02EBB16368002B09
:4019000010DD2368D9F800101A780A44527815070ED5479A01330132479262682360013A6260EBE7A39B3846214698470028E8D008F10106B046D2E7252D08F101064FD165
:401940004592439298F801302A2B03D11023439308F1020631783546A1F13003092B06F1010606D8459B0A2202FB0313303B4593F0E7DFF8DC810322404600F03EFD40B19A
:4019800035460123C8EB000003FA00F2439B134343936E1C2D78672D0FD8652D78D25B2D54D005D8002D00F0C580252D18D071E0632D57D0642D3FD06CE0702D32D007D8BF
:4019C0006E2D55D03AD8692D64D1002344933BE0752D31D0782D29D0732D5BD102233FE06368002B0DDD23681A78AA4240F0A080013362682360479B013A0133626047933D
:401A000098E7A39B3846214698470028EBD04698002800F08F80A38913F0400F18BF4FF0FF3089E0439B43F020034393439B43F400734393102302E00A2300E008236E2DC1
:401A4000449301DD04230BE0032309E03146504600F066FB0646439B43F040034393012349931BE0439B43F0400343930023F7E7439AD0063FF55EAF12F0010F019A479B13
:401A800002F104010191126814BF1380136051E70523E5E7032349930A2344936368002B03DD439B590611D518E0A39B3846214698470028F5D0AAE7479A013247926268EF
:401AC000013A002A626013DD013323602368D9F800101A780A4452781207EDD4499B022B0DDC384643A9224601AB00F0C9F919E0A39B3846214698470028E7D087E7042B87
:401B000006DC384643A9224601AB00F017FA09E00E4B002B3FF40EAF384643A9224601ABAFF30080012803D002287FF403AF6EE7469801E04FF0FF300DF5247DBDE8F087BB
:401B4000051800007F1800008881FF1F000000008C2600002DE9F84391461F468A680B6906469342B8BF1346C9F8003091F843200C46DDF8208012B10133C9F800302368DD
:401B8000990642BFD9F800300233C9F80030256815F006051CD094F843302268003318BF012392061FD5E118302081F843005A1C94F845102244023382F8431013E0304665
:401BC000394604F119020123C047013007D00135E368D9F800209B1A9D42F0DBDBE74FF0FF30BDE8F8833046394604F14302C0470130F4D02268D9F80050E36802F00602E7
:401C0000042A08BF5D1B2269A3680CBF25EAE57500259342C4BF9B1AED184FF00009A9450ADA3046394604F11A020123C0470130D5D009F10109F2E70020BDE8F8830000F8
:401C40002DE9FF410C461746227E98466E2A06460A9B01F1430100F0B08012D8632A23D00AD8002A00F0BD80582A40F0CC8084F84520DFF804E257E0642A1ED0692A1CD091
:401C8000C1E0732A00F0B18009D86F2A2ED0702A40F0B980226842F0200222603FE0752A24D0782A3BD0AEE01A6804F14205111D1960136884F84230A9E020681A6810F09C
:401CC000800F02D0101D186008E010F0400F02F10400186002D0B2F9003000E01368002B3EDA2D225B4284F8432039E020681A6810F0800F02D0101D186007E010F0400FC3
:401D000002F10400186001D0138800E01368227EDFF864E16F2A0CBF08220A221CE07822DFF858E184F845202268186812F0800F00F104051D6003D1550601D5038800E0EE
:401D40000368D00744BF42F0200222601BB9226822F0200222601022002084F8430002E0DFF814E10A226568002DA8BF2068A560A4BF20F00400206003B965B10D46B3FB91
:401D8000F2F002FB10331EF8033005F8013D03460028F4D100E00D46082A0BD12368DA0708D5236962689A42DEBF302305F8013C05F1FF35491B21612EE025681A6815F02F
:401DC000800F606903D0151D1D60136808E015F0400F02F104051D60136801D0188000E01860002323610D4616E01A68111D1960156800212846626800F0FFFA08B1401BB1
:401E00006060636804E004F1420584F8422001232361002384F84330CDF800803046214603AA3B46FFF796FE013002D14FF0FF301FE0304639462A462369C0470130F5D026
:401E400023689B0705D4E068039B9842B8BF18460FE00025E368039A9B1A9D42F3DA3046394604F119020123C0470130DED00135F0E704B0BDE8F08197260000A8260000F9
:401E80002DE9F04115468A6880460C4632B98A69002A0CBF01224FF0FF328A6022680026D1065FBF1A68111D19601768A069F8B923680136DA065EBF2B681B783B702A68FD
:401EC0006B6802F101022A60A26803F1FF3302F1FF326B6058BF0137A260EAB1002BE5DCD4F880314046294698470028DED013E0012807D12B6862691B78D35C002BD7D18A
:401F0000C6B109E0022807D12B680B4A1B78126813445B781B07CBD5236813F0100305D1E2680132E260A26902B13B70236900201E442661BDE8F0818881FF1F2DE9F04F98
:401F40000C469A46724B87B08346164693E8070003AB83E807006F4BA1696F4A04F11C09032918BF1A46A36800925A1EB2F5AE7F82BF6FF4AE7503EB050840F25D134F4698
:401F800088BFA360236898BF4FF0000843F4506323600023326803A951F8230011780222019300F02AFA019B002835D0012B0BD162682AB908226260226842F400722260F9
:401FC000226822F4A0620BE0022B0AD1226802F4C061B1F5007F1FD11021616042F480722260A268511EA160B2B132687D1C511C316012783A707268013A002A72600ADCC1
:40200000D4F880215846314601939047002841D12F46019B00E02F460133032BBAD163680BB90A23636063683C496069C91A00F077F83D460027A3686BB3316860690A7895
:40204000805C40B3302A22680AD1100508D50137B8F1000F0BD0013308F1FF38A36006E022F4106222600B78013505F8013C7368013B002B736003DD33680133336005E08F
:40208000D4F8803158463146984720B9A368013BA360D0E700272368D9050DD54D4509D915F8011C05F1FF38D4F87C3158463246984745464D4527D0226812F010021BD18C
:4020C0002A70636858464946009EB0472268DAF8003012F0200F07D1D20705D51A1DCAF800201B68188004E01A1DCAF800201B681860E3680133E360C9EB05053D442769B4
:4021000000203D44256100E0012007B0BDE8F08FBC2600009122000085210000D8260000F0B50A78441E5E2A13BF4B1C8B1C4A78002108BF012100F1FF0504F8011FAC42A7
:40214000FBD10AB9581EF0BDC1F10104E7B2875419785E1C2D2905D05D290ED079B10A463346F3E75D785D2DF9D09542F7DB02330132AA428754FBDBEAE73046F0BD1846F3
:40218000F0BD00002DE9F0470F46404CD4F800903D4615F801EB09EB0E04667806F0080404F0FF060CB12F46F2E774462D2C03D1BD1C7C78012603E02B2C04BF7C78BD1CDD
:4021C00013B1102B0AD15AE0302C56D12C7804F0DF04582C4CD16C7810230235002E14BF4FF000486FF00048B8FBF3FA0027BE4603FB1A8809EB040C9CF801C01CF0040FCC
:4022000001D0303C0BE01CF0030C1BD0BCF1010F0CBF4FF0370C4FF0570CCCEB04049C4210DAB7F1FF3F0AD0D64506D801D1444503DC03FB0E4E012701E04FF0FF3715F865
:40224000014BD7E77C1C73460AD1002E4FF0220114BF4FF000436FF0004301602AB911E00EB1CEF100036AB107B1691E116009E03024002BB2D10823B0E70A23AEE7302C55
:40228000ACD1A3E71846BDE8F08700BF8881FF1F2DE9F0470E463B4CD4F80090354615F801EB09EB0E04677807F0080404F0FF070CB12E46F2E774462D2C03D1B51C74782F
:4022C000012703E02B2C04BF7478B51C13B1102B0AD151E0302C4DD12C7804F0DF04582C43D16C78102302354FF0FF38B8FBF3F803FB08FA00266FEA0A0AB64609EB040C6F
:402300009CF801C01CF0040F01D0303C0BE01CF0030C1BD0BCF1010F0CBF4FF0370C4FF0570CCCEB04049C4210DAB6F1FF3F0AD0C64506D801D1544503DC03FB0E4E012655
:4023400001E04FF0FF3615F8014BD7E7741C734603D122230360334602E00FB1CEF100036AB106B1691E116009E03024002BBBD10823B9E70A23B7E7302CB5D1ACE7184628
:40238000BDE8F0878881FF1F2DE9F0410C46496B04F1440399421AD14FF4806100F09AF818B94FF0FF30BDE8F0814FF48063A36394F84630606380F8FF3394F8453000F202
:4023C000FD30437094F844300370206012E0A66B77003A4600F0D4F805460028E1D000EB0608404629463246FFF754F8C4F800806563A7630020BDE8F08110B5C9B20244BE
:402400009042034605D01C7801308C42F8D1184610BD002010BD814210B501EB020301D3421E0BE09842FBD28118D21AD34204D013F8014D01F8014DF8E710BD994204D090
:4024400011F8014B02F8014FF8E710BD30B500293CD051F8042C0B1F1D49002AB8BF9B180A680C4612B95A600B6030BD93420DD219685818904201BF5A5852181A60426882
:4024800023605A6030BD994203D80A4651680029F9D1146815199D420AD11B682344D0188842136012D10868034413604B680CE002D90C23036030BD1C681819884201BF88
:4024C00008684968001918605960536030BD00BFCC81FF1F70B5CC1C24F0030408340C2C38BF0C24002C064603DA0C233360002070BD8C42F9D3204A136810461946A1B1FA
:402500000A68121B0ED40B2A03D90A608B188C501FE08B420BBF5A684A6802605A6018BF0B4616E00B464968E9E7144D2B681BB9304600F04BF828603046214600F046F806
:40254000421C0346D1D0C51C25F0030585420AD11C6003F10B001A1D20F00700821A0AD05142995070BD3046E91A00F02FF80130BBD02B46ECE770BDCC81FF1FC881FF1FFC
:40258000F8B5074615460E4621B91146BDE8F840FFF7A0BF1AB9FFF759FF2846F8BD00F025F8A8420ED238462946FFF793FF044650B131462A46FEF76DFF38463146FFF701
:4025C00045FF01E03046F8BD2046F8BD38B5064C0023054608462360FDF7FEFD431C02D1236803B12B6038BDD881FF1F51F8040C0028BEBF091851F8043CC0180438704728
:40260000000000002532686800000000253032580000000047454E45524154494E47204B4559000041410000454E4352595054494E470000035B0040035B00404020000086
:40264000105100401000305100403000F0510040100000000140800E000F0140000100140140000800400140000A004C014000020050014020000000800E01408403004841
:40268000800000004300232D302B2000686C4C006566674546470030313233343536373839414243444546003031323334353637383961626364656600000000DA26000064
:4026C000DD260000E0260000412D46612D66383930313233343536375D002B2D0030300078580000202020202020202020282828282820202020202020202020202020208F
:40270000202020208810101010101010101010101010101004040404040404040404101010101010104141414141410101010101010101010101010101010101010101105F
:4027400010101010104242424242420202020202020202020202020202020202020202101010102000000000000000000000000000000000000000000000000000000000F5
:402780000000000000000000000000000000000000000000000000000000000000000000000000000000000000000000000000000000000000000000000000000000000019
:4027C00000000000000000000000000000000000000000000000000000000000000000000000000000000000000000000000000000000000000000000000000000000000D9
:402800000000000000000000000000000000000000000000000000000000000000000000000000000000000000000000000000000000000000000000000000000000000098
:4028400000000000F8B500BFF8BC08BC9E4670474D00000055020000F8B500BFF8BC08BC9E46704729000000782800000881FF1F880000005000000000000000E081FF1FEF
:4028800001FF00000000E02EC05D00001800000000366E0100000000E427000004280000242800000000000000000000000000000000000084260000000000000000000003
:4028C000000000000000000000000000000000000000000000000000000000000000000000000000000000000000000000000000000000002481FF1FE3260000000000000C
:402900000000000000000000000000000000000000000000000000000000000000000000000000000000000000000000000000000000000000000000000000000000000097
:402940000000000000000000000000000000000000000000000000000000000000000000000000000000000000000000000000000000000000000000000000000000000057
:402980000000000000000000000000000000000000000000000000000000000000000000000000000000000000000000000000000000000000000000000000000000000017
:4029C00000000000000000000000000000000000000000000000000000000000000000000000000000000000000000000000000000000000000000000000000000000000D7
:020000040003F7
:0200000480007A
:4000000003520040036400400103014001070140620801403E090140040B0140470C0140410D01402E0F01400115014002190140011B014003400140044101400142014034
:4000400001430140044401400345014004460140034701400248014001490140024C0140054D01400350014001510140340160406140880F8C388F72E204EA400001054844
:40008000060107860B180DA0118013651560178B1A011E0121E623112580270228012B013001330735F83B083E0140164102450E460B470C481549FF4AFF4BFF4EF04F4471
:4000C000500C54015604580459045A045B045C105D115F0166C06A406B0280068218858087138A0A8B0C90149208940695719608970E98019B089D2C9F43A171A306A610A5
:40010000A806AA08B01EB201B330B5C0B70FB928BA02BB80BE04BF04C003C504C9FFCA07CBFFCC40CD20CEF0CF05D008D804D904DA04DC11DD01DF01E040E1A8E240E32001
:40014000010203080408050209180A900D800F08120813041720182019021E8021942240230425102608272029022A012C602F0830603180320835023608380839203D20BF
:400180003F8441044601472048204C044D0450045308550857445C065E9066028C10900495049E02B602C03AC2CEC446CAE1CCCECE76D032D220D6F0D880EA40900495047A
:4001C000B411B5800108020404390510090C0A040B020D020E080F0C100912301302143015041609190C1A021C381D0E1E01210C2202230224102501283029102C202D107F
:4002000030043202330E340135013638371038203B083E053F1054185604580459045B045C115D105F01840186028C048E0291029301950399039C029E05A407A501A702ED
:40024000A807B103B607B980BF40D804D904DC11DF010108020204100504064007050A010C800D080E040F80102811081501160217181A011D801E041F05200121012202C4
:4002800024042508270129082C882D042E403028320237593C403D083E223F80410842205E026501670A810190409101924095029601990C9A429B589F05A088A104A201F3
:4002C000A508B508C0F5C2F1C4F6CAF2CCF7CEF0D680D8B0045005A80C040D290E011401160217191C501D841E08253026092C052D082F80360837513C403D203E0945802D
:4003000047054DA156405E086C086D086E40760A771879027B80888089208C108F40C0E0C2F0C4F0CAF0CCF0CEF0D0D0D230D640EC10B002B104EC1033103420CC308310D8
:400340009C209F10E2209C20B42001027D20C008DE01A510B502EA024508B510D001EC088F02A508E4022510C820B510A302A5087F02A302B508DE04EC0800020C020E02D9
:40038000000F000000C00000010810004F1900C443C70C18020010C64F0000014C18030003DF200000800300044100200C1900C2081000000FC00020401F300000000A20DB
:4003C000000050005406030001E00C0006FFFFFF62A0F0410C0000000000021204040404111100010000000000004002001030100010101200000000000000000000000016
:40040000000000000000000000008000400000404000400000000000007F7F000000000001000000000000005C0018010000000000000000000000000000000000000000C8
:40044000000000000000000000000000000000000000000000000000000000000000000000000000000000000000000000000000000000000000000000000000000000007C
:40048000000000000000000000000000000000000000000000000000000000000000000000000000000000000000000000000000000000000000000000000000000000003C
:4004C00000000000000000000000000000000000000000000000000000000000000000000000000000000000000000000000000000000000000000000000000000000000FC
:4005000000000000000000000000000000000000000000000000000000000000000000000000000000000000000000000000000000000000000000000000000000000000BB
:0200000490006A
:0400000000004005B7
:0200000490105A
:04000000BC90ACAF55
:0200000490303A
:0200000012D418
:0200000490402A
:4000000000000000000000000000000000000000000000000000000000000000000000000000000000000000000000000000000000000000000000000000000000000000C0
:400040000000000000000000000000000000000000000000000000000000000000000000000000000000000000000000000000000000000000000000000000000000000080
:400080000000000000000000000000000000000000000000000000000000000000000000000000000000000000000000000000000000000000000000000000000000000040
:4000C0000000000000000000000000000000000000000000000000000000000000000000000000000000000000000000000000000000000000000000000000000000000000
:0200000490501A
:0C00000000012E12306900012E21433D4A
:00000001FF